{
  "_format": "hh-sol-artifact-1",
  "contractName": "StudentRegistration",
  "sourceName": "contracts/StudentRegistration.sol",
  "abi": [
    {
      "inputs": [],
      "stateMutability": "nonpayable",
      "type": "constructor"
    },
    {
      "anonymous": false,
      "inputs": [
        {
          "indexed": true,
          "internalType": "address",
          "name": "studentAddress",
          "type": "address"
        },
        {
          "indexed": false,
          "internalType": "uint256",
          "name": "studentId",
          "type": "uint256"
        },
        {
          "indexed": false,
          "internalType": "string",
          "name": "name",
          "type": "string"
        }
      ],
      "name": "StudentsRegistered",
      "type": "event"
    },
    {
      "inputs": [],
      "name": "admin",
      "outputs": [
        {
          "internalType": "address",
          "name": "",
          "type": "address"
        }
      ],
      "stateMutability": "view",
      "type": "function"
    },
    {
      "inputs": [
        {
          "internalType": "uint256",
          "name": "",
          "type": "uint256"
        }
      ],
      "name": "allStudentsData",
      "outputs": [
        {
          "internalType": "string",
          "name": "firstName",
          "type": "string"
        },
        {
          "internalType": "string",
          "name": "lastName",
          "type": "string"
        },
        {
          "internalType": "uint256",
          "name": "age",
          "type": "uint256"
        },
        {
          "internalType": "uint256",
          "name": "studentId",
          "type": "uint256"
        },
        {
          "internalType": "uint256",
          "name": "cellPhone",
          "type": "uint256"
        },
        {
          "internalType": "string",
          "name": "houseAddress",
          "type": "string"
        },
        {
          "internalType": "string",
          "name": "city",
          "type": "string"
        },
        {
          "internalType": "string",
          "name": "country",
          "type": "string"
        },
        {
          "internalType": "string",
          "name": "sports",
          "type": "string"
        },
        {
          "internalType": "bool",
          "name": "isRegistered",
          "type": "bool"
        }
      ],
      "stateMutability": "view",
      "type": "function"
    },
    {
      "inputs": [
        {
          "internalType": "uint256",
          "name": "_studentId",
          "type": "uint256"
        }
      ],
      "name": "getStudentById",
      "outputs": [
        {
          "components": [
            {
              "internalType": "string",
              "name": "firstName",
              "type": "string"
            },
            {
              "internalType": "string",
              "name": "lastName",
              "type": "string"
            },
            {
              "internalType": "uint256",
              "name": "age",
              "type": "uint256"
            },
            {
              "internalType": "uint256",
              "name": "studentId",
              "type": "uint256"
            },
            {
              "internalType": "uint256",
              "name": "cellPhone",
              "type": "uint256"
            },
            {
              "internalType": "string",
              "name": "houseAddress",
              "type": "string"
            },
            {
              "internalType": "string",
              "name": "city",
              "type": "string"
            },
            {
              "internalType": "string",
              "name": "country",
              "type": "string"
            },
            {
              "internalType": "string",
              "name": "sports",
              "type": "string"
            },
            {
              "internalType": "bool",
              "name": "isRegistered",
              "type": "bool"
            }
          ],
          "internalType": "struct StudentRegistration.StudentData",
          "name": "",
          "type": "tuple"
        }
      ],
      "stateMutability": "view",
      "type": "function"
    },
    {
      "inputs": [
        {
          "internalType": "string",
          "name": "_firstName",
          "type": "string"
        },
        {
          "internalType": "string",
          "name": "_lastName",
          "type": "string"
        },
        {
          "internalType": "uint256",
          "name": "_age",
          "type": "uint256"
        },
        {
          "internalType": "uint256",
          "name": "_cellPhone",
          "type": "uint256"
        },
        {
          "internalType": "string",
          "name": "_houseAddress",
          "type": "string"
        },
        {
          "internalType": "string",
          "name": "_city",
          "type": "string"
        },
        {
          "internalType": "string",
          "name": "_country",
          "type": "string"
        },
        {
          "internalType": "string",
          "name": "_sports",
          "type": "string"
        }
      ],
      "name": "register",
      "outputs": [],
      "stateMutability": "nonpayable",
      "type": "function"
    }
  ],
  "bytecode": "0x608060405234801561001057600080fd5b50336000806101000a81548173ffffffffffffffffffffffffffffffffffffffff021916908373ffffffffffffffffffffffffffffffffffffffff16021790555061189c806100606000396000f3fe608060405234801561001057600080fd5b506004361061004c5760003560e01c806393dce2d814610051578063a659dbc61461008a578063c8fb0793146100a6578063f851a440146100d6575b600080fd5b61006b60048036038101906100669190610d57565b6100f4565b6040516100819a99989796959493929190610e3e565b60405180910390f35b6100a4600480360381019061009f9190611039565b610495565b005b6100c060048036038101906100bb9190610d57565b6107a5565b6040516100cd91906112fc565b60405180910390f35b6100de610bdb565b6040516100eb919061135f565b60405180910390f35b6001818154811061010457600080fd5b90600052602060002090600a0201600091509050806000018054610127906113a9565b80601f0160208091040260200160405190810160405280929190818152602001828054610153906113a9565b80156101a05780601f10610175576101008083540402835291602001916101a0565b820191906000526020600020905b81548152906001019060200180831161018357829003601f168201915b5050505050908060010180546101b5906113a9565b80601f01602080910402602001604051908101604052809291908181526020018280546101e1906113a9565b801561022e5780601f106102035761010080835404028352916020019161022e565b820191906000526020600020905b81548152906001019060200180831161021157829003601f168201915b505050505090806002015490806003015490806004015490806005018054610255906113a9565b80601f0160208091040260200160405190810160405280929190818152602001828054610281906113a9565b80156102ce5780601f106102a3576101008083540402835291602001916102ce565b820191906000526020600020905b8154815290600101906020018083116102b157829003601f168201915b5050505050908060060180546102e3906113a9565b80601f016020809104026020016040519081016040528092919081815260200182805461030f906113a9565b801561035c5780601f106103315761010080835404028352916020019161035c565b820191906000526020600020905b81548152906001019060200180831161033f57829003601f168201915b505050505090806007018054610371906113a9565b80601f016020809104026020016040519081016040528092919081815260200182805461039d906113a9565b80156103ea5780601f106103bf576101008083540402835291602001916103ea565b820191906000526020600020905b8154815290600101906020018083116103cd57829003601f168201915b5050505050908060080180546103ff906113a9565b80601f016020809104026020016040519081016040528092919081815260200182805461042b906113a9565b80156104785780601f1061044d57610100808354040283529160200191610478565b820191906000526020600020905b81548152906001019060200180831161045b57829003601f168201915b5050505050908060090160009054906101000a900460ff1690508a565b60008054906101000a900473ffffffffffffffffffffffffffffffffffffffff1673ffffffffffffffffffffffffffffffffffffffff163373ffffffffffffffffffffffffffffffffffffffff1614610523576040517f08c379a000000000000000000000000000000000000000000000000000000000815260040161051a90611426565b60405180910390fd5b600061052d610bff565b905060006040518061014001604052808b81526020018a8152602001898152602001838152602001888152602001878152602001868152602001858152602001848152602001600115158152509050806002600084815260200190815260200160002060008201518160000190816105a591906115f2565b5060208201518160010190816105bb91906115f2565b5060408201518160020155606082015181600301556080820151816004015560a08201518160050190816105ef91906115f2565b5060c082015181600601908161060591906115f2565b5060e082015181600701908161061b91906115f2565b5061010082015181600801908161063291906115f2565b506101208201518160090160006101000a81548160ff02191690831515021790555090505060018190806001815401808255809150506001900390600052602060002090600a0201600090919091909150600082015181600001908161069891906115f2565b5060208201518160010190816106ae91906115f2565b5060408201518160020155606082015181600301556080820151816004015560a08201518160050190816106e291906115f2565b5060c08201518160060190816106f891906115f2565b5060e082015181600701908161070e91906115f2565b5061010082015181600801908161072591906115f2565b506101208201518160090160006101000a81548160ff02191690831515021790555050503373ffffffffffffffffffffffffffffffffffffffff167f7eac2d99548e1e40630ee2ae3406a8925bd53892159123199f4940bbf1b4c5e3838c6040516107919291906116c4565b60405180910390a250505050505050505050565b6107ad610cb8565b6002600083815260200190815260200160002060090160009054906101000a900460ff16610810576040517f08c379a000000000000000000000000000000000000000000000000000000000815260040161080790611740565b60405180910390fd5b600260008381526020019081526020016000206040518061014001604052908160008201805461083f906113a9565b80601f016020809104026020016040519081016040528092919081815260200182805461086b906113a9565b80156108b85780601f1061088d576101008083540402835291602001916108b8565b820191906000526020600020905b81548152906001019060200180831161089b57829003601f168201915b505050505081526020016001820180546108d1906113a9565b80601f01602080910402602001604051908101604052809291908181526020018280546108fd906113a9565b801561094a5780601f1061091f5761010080835404028352916020019161094a565b820191906000526020600020905b81548152906001019060200180831161092d57829003601f168201915b50505050508152602001600282015481526020016003820154815260200160048201548152602001600582018054610981906113a9565b80601f01602080910402602001604051908101604052809291908181526020018280546109ad906113a9565b80156109fa5780601f106109cf576101008083540402835291602001916109fa565b820191906000526020600020905b8154815290600101906020018083116109dd57829003601f168201915b50505050508152602001600682018054610a13906113a9565b80601f0160208091040260200160405190810160405280929190818152602001828054610a3f906113a9565b8015610a8c5780601f10610a6157610100808354040283529160200191610a8c565b820191906000526020600020905b815481529060010190602001808311610a6f57829003601f168201915b50505050508152602001600782018054610aa5906113a9565b80601f0160208091040260200160405190810160405280929190818152602001828054610ad1906113a9565b8015610b1e5780601f10610af357610100808354040283529160200191610b1e565b820191906000526020600020905b815481529060010190602001808311610b0157829003601f168201915b50505050508152602001600882018054610b37906113a9565b80601f0160208091040260200160405190810160405280929190818152602001828054610b63906113a9565b8015610bb05780601f10610b8557610100808354040283529160200191610bb0565b820191906000526020600020905b815481529060010190602001808311610b9357829003601f168201915b505050505081526020016009820160009054906101000a900460ff1615151515815250509050919050565b60008054906101000a900473ffffffffffffffffffffffffffffffffffffffff1681565b600080612710424433604051602001610c1a939291906117c9565b6040516020818303038152906040528051906020012060001c610c3d9190611835565b90505b610c4981610c96565b610c8f57612710424433604051602001610c65939291906117c9565b6040516020818303038152906040528051906020012060001c610c889190611835565b9050610c40565b8091505090565b6000806002600084815260200190815260200160002060030154149050919050565b6040518061014001604052806060815260200160608152602001600081526020016000815260200160008152602001606081526020016060815260200160608152602001606081526020016000151581525090565b6000604051905090565b600080fd5b600080fd5b6000819050919050565b610d3481610d21565b8114610d3f57600080fd5b50565b600081359050610d5181610d2b565b92915050565b600060208284031215610d6d57610d6c610d17565b5b6000610d7b84828501610d42565b91505092915050565b600081519050919050565b600082825260208201905092915050565b60005b83811015610dbe578082015181840152602081019050610da3565b60008484015250505050565b6000601f19601f8301169050919050565b6000610de682610d84565b610df08185610d8f565b9350610e00818560208601610da0565b610e0981610dca565b840191505092915050565b610e1d81610d21565b82525050565b60008115159050919050565b610e3881610e23565b82525050565b6000610140820190508181036000830152610e59818d610ddb565b90508181036020830152610e6d818c610ddb565b9050610e7c604083018b610e14565b610e89606083018a610e14565b610e966080830189610e14565b81810360a0830152610ea88188610ddb565b905081810360c0830152610ebc8187610ddb565b905081810360e0830152610ed08186610ddb565b9050818103610100830152610ee58185610ddb565b9050610ef5610120830184610e2f565b9b9a5050505050505050505050565b600080fd5b600080fd5b7f4e487b7100000000000000000000000000000000000000000000000000000000600052604160045260246000fd5b610f4682610dca565b810181811067ffffffffffffffff82111715610f6557610f64610f0e565b5b80604052505050565b6000610f78610d0d565b9050610f848282610f3d565b919050565b600067ffffffffffffffff821115610fa457610fa3610f0e565b5b610fad82610dca565b9050602081019050919050565b82818337600083830152505050565b6000610fdc610fd784610f89565b610f6e565b905082815260208101848484011115610ff857610ff7610f09565b5b611003848285610fba565b509392505050565b600082601f8301126110205761101f610f04565b5b8135611030848260208601610fc9565b91505092915050565b600080600080600080600080610100898b03121561105a57611059610d17565b5b600089013567ffffffffffffffff81111561107857611077610d1c565b5b6110848b828c0161100b565b985050602089013567ffffffffffffffff8111156110a5576110a4610d1c565b5b6110b18b828c0161100b565b97505060406110c28b828c01610d42565b96505060606110d38b828c01610d42565b955050608089013567ffffffffffffffff8111156110f4576110f3610d1c565b5b6111008b828c0161100b565b94505060a089013567ffffffffffffffff81111561112157611120610d1c565b5b61112d8b828c0161100b565b93505060c089013567ffffffffffffffff81111561114e5761114d610d1c565b5b61115a8b828c0161100b565b92505060e089013567ffffffffffffffff81111561117b5761117a610d1c565b5b6111878b828c0161100b565b9150509295985092959890939650565b600082825260208201905092915050565b60006111b382610d84565b6111bd8185611197565b93506111cd818560208601610da0565b6111d681610dca565b840191505092915050565b6111ea81610d21565b82525050565b6111f981610e23565b82525050565b600061014083016000830151848203600086015261121d82826111a8565b9150506020830151848203602086015261123782826111a8565b915050604083015161124c60408601826111e1565b50606083015161125f60608601826111e1565b50608083015161127260808601826111e1565b5060a083015184820360a086015261128a82826111a8565b91505060c083015184820360c08601526112a482826111a8565b91505060e083015184820360e08601526112be82826111a8565b9150506101008301518482036101008601526112da82826111a8565b9150506101208301516112f16101208601826111f0565b508091505092915050565b6000602082019050818103600083015261131681846111ff565b905092915050565b600073ffffffffffffffffffffffffffffffffffffffff82169050919050565b60006113498261131e565b9050919050565b6113598161133e565b82525050565b60006020820190506113746000830184611350565b92915050565b7f4e487b7100000000000000000000000000000000000000000000000000000000600052602260045260246000fd5b600060028204905060018216806113c157607f821691505b6020821081036113d4576113d361137a565b5b50919050565b7f4e6f742061646d696e0000000000000000000000000000000000000000000000600082015250565b6000611410600983610d8f565b915061141b826113da565b602082019050919050565b6000602082019050818103600083015261143f81611403565b9050919050565b60008190508160005260206000209050919050565b60006020601f8301049050919050565b600082821b905092915050565b6000600883026114a87fffffffffffffffffffffffffffffffffffffffffffffffffffffffffffffffff8261146b565b6114b2868361146b565b95508019841693508086168417925050509392505050565b6000819050919050565b60006114ef6114ea6114e584610d21565b6114ca565b610d21565b9050919050565b6000819050919050565b611509836114d4565b61151d611515826114f6565b848454611478565b825550505050565b600090565b611532611525565b61153d818484611500565b505050565b5b818110156115615761155660008261152a565b600181019050611543565b5050565b601f8211156115a65761157781611446565b6115808461145b565b8101602085101561158f578190505b6115a361159b8561145b565b830182611542565b50505b505050565b600082821c905092915050565b60006115c9600019846008026115ab565b1980831691505092915050565b60006115e283836115b8565b9150826002028217905092915050565b6115fb82610d84565b67ffffffffffffffff81111561161457611613610f0e565b5b61161e82546113a9565b611629828285611565565b600060209050601f83116001811461165c576000841561164a578287015190505b61165485826115d6565b8655506116bc565b601f19841661166a86611446565b60005b828110156116925784890151825560018201915060208501945060208101905061166d565b868310156116af57848901516116ab601f8916826115b8565b8355505b6001600288020188555050505b505050505050565b60006040820190506116d96000830185610e14565b81810360208301526116eb8184610ddb565b90509392505050565b7f53747564656e74206e6f74207265676973746572656400000000000000000000600082015250565b600061172a601683610d8f565b9150611735826116f4565b602082019050919050565b600060208201905081810360008301526117598161171d565b9050919050565b6000819050919050565b61177b61177682610d21565b611760565b82525050565b60008160601b9050919050565b600061179982611781565b9050919050565b60006117ab8261178e565b9050919050565b6117c36117be8261133e565b6117a0565b82525050565b60006117d5828661176a565b6020820191506117e5828561176a565b6020820191506117f582846117b2565b601482019150819050949350505050565b7f4e487b7100000000000000000000000000000000000000000000000000000000600052601260045260246000fd5b600061184082610d21565b915061184b83610d21565b92508261185b5761185a611806565b5b82820690509291505056fea264697066735822122031add2fc7c4f66311a40b58f30f41d509befe5cb40dfe1e03a6920c49fb90a2c64736f6c63430008180033",
  "linkReferences": {},
  "deployedLinkReferences": {}
}